{
  "_format": "hh-sol-artifact-1",
  "contractName": "InheritContract",
  "sourceName": "contracts/InheritContract.sol",
  "abi": [
    {
      "inputs": [
        {
          "internalType": "address",
          "name": "_heir",
          "type": "address"
        }
      ],
      "stateMutability": "payable",
      "type": "constructor"
    },
    {
      "inputs": [],
      "name": "HeirCannotBeZeroAddress",
      "type": "error"
    },
    {
      "inputs": [],
      "name": "NotEnoughBalance",
      "type": "error"
    },
    {
      "inputs": [],
      "name": "NotEnoughTimePassed",
      "type": "error"
    },
    {
      "inputs": [],
      "name": "OnlyHeirCanCall",
      "type": "error"
    },
    {
      "inputs": [],
      "name": "OnlyOwnerCanCall",
      "type": "error"
    },
    {
      "anonymous": false,
      "inputs": [
        {
          "indexed": true,
          "internalType": "address",
          "name": "_previousHeir",
          "type": "address"
        },
        {
          "indexed": true,
          "internalType": "address",
          "name": "_newHeir",
          "type": "address"
        }
      ],
      "name": "HeirUpdated",
      "type": "event"
    },
    {
      "anonymous": false,
      "inputs": [
        {
          "indexed": true,
          "internalType": "address",
          "name": "_previousOwner",
          "type": "address"
        },
        {
          "indexed": true,
          "internalType": "address",
          "name": "_newOwner",
          "type": "address"
        }
      ],
      "name": "OwnershipTransferred",
      "type": "event"
    },
    {
      "anonymous": false,
      "inputs": [
        {
          "indexed": true,
          "internalType": "address",
          "name": "_by",
          "type": "address"
        },
        {
          "indexed": false,
          "internalType": "uint256",
          "name": "_amount",
          "type": "uint256"
        }
      ],
      "name": "Withdrawal",
      "type": "event"
    },
    {
      "inputs": [],
      "name": "OWNERSHIP_TRANSFER_DELAY",
      "outputs": [
        {
          "internalType": "uint256",
          "name": "",
          "type": "uint256"
        }
      ],
      "stateMutability": "view",
      "type": "function"
    },
    {
      "inputs": [
        {
          "internalType": "address",
          "name": "_newHeir",
          "type": "address"
        }
      ],
      "name": "claimOwnership",
      "outputs": [],
      "stateMutability": "nonpayable",
      "type": "function"
    },
    {
      "inputs": [],
      "name": "heir",
      "outputs": [
        {
          "internalType": "address",
          "name": "",
          "type": "address"
        }
      ],
      "stateMutability": "view",
      "type": "function"
    },
    {
      "inputs": [],
      "name": "lastWithdrawalTimeStamp",
      "outputs": [
        {
          "internalType": "uint256",
          "name": "",
          "type": "uint256"
        }
      ],
      "stateMutability": "view",
      "type": "function"
    },
    {
      "inputs": [],
      "name": "owner",
      "outputs": [
        {
          "internalType": "address",
          "name": "",
          "type": "address"
        }
      ],
      "stateMutability": "view",
      "type": "function"
    },
    {
      "inputs": [
        {
          "internalType": "address",
          "name": "_newHeir",
          "type": "address"
        }
      ],
      "name": "updateHeir",
      "outputs": [],
      "stateMutability": "nonpayable",
      "type": "function"
    },
    {
      "inputs": [
        {
          "internalType": "uint256",
          "name": "_amount",
          "type": "uint256"
        }
      ],
      "name": "withdraw",
      "outputs": [],
      "stateMutability": "nonpayable",
      "type": "function"
    }
  ],
  "bytecode": "0x6080604052604051610c83380380610c8383398181016040528101906100259190610274565b600073ffffffffffffffffffffffffffffffffffffffff168173ffffffffffffffffffffffffffffffffffffffff160361008b576040517fec9ff89900000000000000000000000000000000000000000000000000000000815260040160405180910390fd5b336000806101000a81548173ffffffffffffffffffffffffffffffffffffffff021916908373ffffffffffffffffffffffffffffffffffffffff16021790555080600160006101000a81548173ffffffffffffffffffffffffffffffffffffffff021916908373ffffffffffffffffffffffffffffffffffffffff1602179055504260028190555060008054906101000a900473ffffffffffffffffffffffffffffffffffffffff1673ffffffffffffffffffffffffffffffffffffffff16600073ffffffffffffffffffffffffffffffffffffffff167f8be0079c531659141344cd1fd0a4f28419497f9722a3daafe3b4186f6b6457e060405160405180910390a3600160009054906101000a900473ffffffffffffffffffffffffffffffffffffffff1673ffffffffffffffffffffffffffffffffffffffff16600073ffffffffffffffffffffffffffffffffffffffff167f58f782e065fc4719be62e1e75b599023cdefd457e2c87042856c70f6796b016360405160405180910390a3506102a1565b600080fd5b600073ffffffffffffffffffffffffffffffffffffffff82169050919050565b600061024182610216565b9050919050565b61025181610236565b811461025c57600080fd5b50565b60008151905061026e81610248565b92915050565b60006020828403121561028a57610289610211565b5b60006102988482850161025f565b91505092915050565b6109d3806102b06000396000f3fe608060405234801561001057600080fd5b506004361061007d5760003560e01c80638da5cb5b1161005b5780638da5cb5b146100da57806391f2ebb8146100f8578063cab6d38714610116578063da92d3ae146101325761007d565b80632e1a7d4d146100825780637433ae7a1461009e57806382e15b4b146100bc575b600080fd5b61009c6004803603810190610097919061082e565b61014e565b005b6100a66102f5565b6040516100b3919061086a565b60405180910390f35b6100c46102fc565b6040516100d1919061086a565b60405180910390f35b6100e2610302565b6040516100ef91906108c6565b60405180910390f35b610100610326565b60405161010d91906108c6565b60405180910390f35b610130600480360381019061012b919061090d565b61034c565b005b61014c6004803603810190610147919061090d565b6104f7565b005b60008054906101000a900473ffffffffffffffffffffffffffffffffffffffff1673ffffffffffffffffffffffffffffffffffffffff163373ffffffffffffffffffffffffffffffffffffffff16146101d3576040517f47a8ea5800000000000000000000000000000000000000000000000000000000815260040160405180910390fd5b4781111561020d576040517fad3a8b9e00000000000000000000000000000000000000000000000000000000815260040160405180910390fd5b42600281905550600081146102845760008054906101000a900473ffffffffffffffffffffffffffffffffffffffff1673ffffffffffffffffffffffffffffffffffffffff166108fc829081150290604051600060405180830381858888f19350505050158015610282573d6000803e3d6000fd5b505b60008054906101000a900473ffffffffffffffffffffffffffffffffffffffff1673ffffffffffffffffffffffffffffffffffffffff167f7fcf532c15f0a6db0bd6d0e038bea71d30d808c7d98cb3bf7268a95bf5081b65826040516102ea919061086a565b60405180910390a250565b62278d0081565b60025481565b60008054906101000a900473ffffffffffffffffffffffffffffffffffffffff1681565b600160009054906101000a900473ffffffffffffffffffffffffffffffffffffffff1681565b60008054906101000a900473ffffffffffffffffffffffffffffffffffffffff1673ffffffffffffffffffffffffffffffffffffffff163373ffffffffffffffffffffffffffffffffffffffff16146103d1576040517f47a8ea5800000000000000000000000000000000000000000000000000000000815260040160405180910390fd5b600073ffffffffffffffffffffffffffffffffffffffff168173ffffffffffffffffffffffffffffffffffffffff1603610437576040517fec9ff89900000000000000000000000000000000000000000000000000000000815260040160405180910390fd5b8073ffffffffffffffffffffffffffffffffffffffff16600160009054906101000a900473ffffffffffffffffffffffffffffffffffffffff1673ffffffffffffffffffffffffffffffffffffffff167f58f782e065fc4719be62e1e75b599023cdefd457e2c87042856c70f6796b016360405160405180910390a380600160006101000a81548173ffffffffffffffffffffffffffffffffffffffff021916908373ffffffffffffffffffffffffffffffffffffffff16021790555050565b600160009054906101000a900473ffffffffffffffffffffffffffffffffffffffff1673ffffffffffffffffffffffffffffffffffffffff163373ffffffffffffffffffffffffffffffffffffffff161461057e576040517ff7b7296a00000000000000000000000000000000000000000000000000000000815260040160405180910390fd5b62278d00600254426105909190610969565b10156105c8576040517f5ada9a9900000000000000000000000000000000000000000000000000000000815260040160405180910390fd5b600073ffffffffffffffffffffffffffffffffffffffff168173ffffffffffffffffffffffffffffffffffffffff160361062e576040517fec9ff89900000000000000000000000000000000000000000000000000000000815260040160405180910390fd5b600160009054906101000a900473ffffffffffffffffffffffffffffffffffffffff1673ffffffffffffffffffffffffffffffffffffffff1660008054906101000a900473ffffffffffffffffffffffffffffffffffffffff1673ffffffffffffffffffffffffffffffffffffffff167f8be0079c531659141344cd1fd0a4f28419497f9722a3daafe3b4186f6b6457e060405160405180910390a38073ffffffffffffffffffffffffffffffffffffffff16600160009054906101000a900473ffffffffffffffffffffffffffffffffffffffff1673ffffffffffffffffffffffffffffffffffffffff167f58f782e065fc4719be62e1e75b599023cdefd457e2c87042856c70f6796b016360405160405180910390a3600160009054906101000a900473ffffffffffffffffffffffffffffffffffffffff166000806101000a81548173ffffffffffffffffffffffffffffffffffffffff021916908373ffffffffffffffffffffffffffffffffffffffff16021790555080600160006101000a81548173ffffffffffffffffffffffffffffffffffffffff021916908373ffffffffffffffffffffffffffffffffffffffff1602179055504260028190555050565b600080fd5b6000819050919050565b61080b816107f8565b811461081657600080fd5b50565b60008135905061082881610802565b92915050565b600060208284031215610844576108436107f3565b5b600061085284828501610819565b91505092915050565b610864816107f8565b82525050565b600060208201905061087f600083018461085b565b92915050565b600073ffffffffffffffffffffffffffffffffffffffff82169050919050565b60006108b082610885565b9050919050565b6108c0816108a5565b82525050565b60006020820190506108db60008301846108b7565b92915050565b6108ea816108a5565b81146108f557600080fd5b50565b600081359050610907816108e1565b92915050565b600060208284031215610923576109226107f3565b5b6000610931848285016108f8565b91505092915050565b7f4e487b7100000000000000000000000000000000000000000000000000000000600052601160045260246000fd5b6000610974826107f8565b915061097f836107f8565b92508282039050818111156109975761099661093a565b5b9291505056fea264697066735822122038a493ff5099fee3124bf090c815a8edf92e9f0e4fd56a647c01c1ab53e021e764736f6c634300081b0033",
  "linkReferences": {},
  "deployedLinkReferences": {}
}